{
  "contractName": "TodoFactory",
  "abi": [
    {
      "anonymous": false,
      "inputs": [
        {
          "indexed": false,
          "name": "todoId",
          "type": "uint256"
        }
      ],
      "name": "OnTodoAdded",
      "type": "event"
    },
    {
      "anonymous": false,
      "inputs": [
        {
          "indexed": false,
          "name": "todoId",
          "type": "uint256"
        }
      ],
      "name": "OnTodoDeleted",
      "type": "event"
    },
    {
      "anonymous": false,
      "inputs": [
        {
          "indexed": false,
          "name": "todoId",
          "type": "uint256"
        }
      ],
      "name": "OnTodoCompleted",
      "type": "event"
    },
    {
      "constant": true,
      "inputs": [
        {
          "name": "_todoId",
          "type": "uint256"
        }
      ],
      "name": "isTodoValid",
      "outputs": [
        {
          "name": "isVald",
          "type": "bool"
        }
      ],
      "payable": false,
      "stateMutability": "view",
      "type": "function"
    },
    {
      "constant": true,
      "inputs": [
        {
          "name": "_todoId",
          "type": "uint256"
        }
      ],
      "name": "isTodoCompleted",
      "outputs": [
        {
          "name": "isValid",
          "type": "bool"
        }
      ],
      "payable": false,
      "stateMutability": "view",
      "type": "function"
    },
    {
      "constant": true,
      "inputs": [
        {
          "name": "_todoId",
          "type": "uint256"
        }
      ],
      "name": "getTodo",
      "outputs": [
        {
          "name": "",
          "type": "string"
        },
        {
          "name": "",
          "type": "bool"
        }
      ],
      "payable": false,
      "stateMutability": "view",
      "type": "function"
    },
    {
      "constant": true,
      "inputs": [],
      "name": "getTodoList",
      "outputs": [
        {
          "name": "",
          "type": "uint256[]"
        },
        {
          "name": "",
          "type": "bool[]"
        }
      ],
      "payable": false,
      "stateMutability": "view",
      "type": "function"
    },
    {
      "constant": false,
      "inputs": [
        {
          "name": "_taskName",
          "type": "string"
        }
      ],
      "name": "addTodo",
      "outputs": [],
      "payable": false,
      "stateMutability": "nonpayable",
      "type": "function"
    },
    {
      "constant": false,
      "inputs": [
        {
          "name": "_todoId",
          "type": "uint256"
        }
      ],
      "name": "deleteTodo",
      "outputs": [],
      "payable": false,
      "stateMutability": "nonpayable",
      "type": "function"
    },
    {
      "constant": false,
      "inputs": [
        {
          "name": "_todoId",
          "type": "uint256"
        }
      ],
      "name": "completeTodo",
      "outputs": [],
      "payable": false,
      "stateMutability": "nonpayable",
      "type": "function"
    }
  ],
  "bytecode": "0x6060604052341561000f57600080fd5b610a868061001e6000396000f300606060405260043610610083576000357c0100000000000000000000000000000000000000000000000000000000900463ffffffff1680630c7a16be1461008857806320fe21441461013a5780633850e7d51461015d5780636e3c6738146101985780637a3f48a8146101bb57806395ffebf5146101f6578063dd68afb614610253575b600080fd5b341561009357600080fd5b61009b6102fa565b604051808060200180602001838103835285818151815260200191508051906020019060200280838360005b838110156100e25780820151818401526020810190506100c7565b50505050905001838103825284818151815260200191508051906020019060200280838360005b83811015610124578082015181840152602081019050610109565b5050505090500194505050505060405180910390f35b341561014557600080fd5b61015b600480803590602001909190505061042a565b005b341561016857600080fd5b61017e60048080359060200190919050506104b3565b604051808215151515815260200191505060405180910390f35b34156101a357600080fd5b6101b960048080359060200190919050506104e9565b005b34156101c657600080fd5b6101dc6004808035906020019091905050610571565b604051808215151515815260200191505060405180910390f35b341561020157600080fd5b610251600480803590602001908201803590602001908080601f016020809104026020016040519081016040528093929190818152602001838380828437820191505050505050919050506105be565b005b341561025e57600080fd5b61027460048080359060200190919050506106b6565b604051808060200183151515158152602001828103825284818151815260200191508051906020019080838360005b838110156102be5780820151818401526020810190506102a3565b50505050905090810190601f1680156102eb5780820380516001836020036101000a031916815260200191505b50935050505060405180910390f35b610302610868565b61030a61087c565b6000610314610868565b61031c610868565b61032461087c565b60008061032f6107c9565b8097508196505050856040518059106103455750595b90808252806020026020018201604052509350856040518059106103665750595b90808252806020026020018201604052509250600091505b8582101561041a57848281518110151561039457fe5b9060200190602002015190508084838151811015156103af57fe5b90602001906020020181815250506000818154811015156103cc57fe5b906000526020600020906002020160010160009054906101000a900460ff1683838151811015156103f957fe5b9060200190602002019015159081151581525050818060010192505061037e565b8383975097505050505050509091565b80610434816104b3565b151561043f57600080fd5b600160008381548110151561045057fe5b906000526020600020906002020160010160006101000a81548160ff0219169083151502179055507f61d1105621ac231cbad3b861dbf7afa380522c35d47c2dc979cd1da098689104826040518082815260200191505060405180910390a15050565b600080828154811015156104c357fe5b906000526020600020906002020160010160019054906101000a900460ff169050919050565b806104f3816104b3565b15156104fe57600080fd5b6000808381548110151561050e57fe5b906000526020600020906002020160010160016101000a81548160ff0219169083151502179055507f73e4229b811312fffcc660ed4dc33edcb38ca330ced2c471913a1c46b81509e3826040518082815260200191505060405180910390a15050565b60008161057d816104b3565b151561058857600080fd5b60008381548110151561059757fe5b906000526020600020906002020160010160009054906101000a900460ff16915050919050565b6105c6610890565b600060606040519081016040528084815260200160001515815260200160011515815250915060016000805480600101828161060291906108bc565b9160005260206000209060020201600085909190915060008201518160000190805190602001906106349291906108ee565b5060208201518160010160006101000a81548160ff02191690831515021790555060408201518160010160016101000a81548160ff02191690831515021790555050500390507f6edbfebf4adc3e180444860a21cd838446f00049410a44c6ec4a178a2ebe529b816040518082815260200191505060405180910390a1505050565b6106be61096e565b6000826106ca816104b3565b15156106d557600080fd5b6000848154811015156106e457fe5b906000526020600020906002020160000160008581548110151561070457fe5b906000526020600020906002020160010160009054906101000a900460ff16818054600181600116156101000203166002900480601f0160208091040260200160405190810160405280929190818152602001828054600181600116156101000203166002900480156107b85780601f1061078d576101008083540402835291602001916107b8565b820191906000526020600020905b81548152906001019060200180831161079b57829003601f168201915b505050505091509250925050915091565b6107d1610868565b60006107db610868565b6000806000805490506040518059106107f15750595b9080825280602002602001820160405250925060009150600090505b60008054905081101561085b57610823816104b3565b1561084e5780838381518110151561083757fe5b906020019060200201818152505081806001019250505b808060010191505061080d565b8282945094505050509091565b602060405190810160405280600081525090565b602060405190810160405280600081525090565b6060604051908101604052806108a4610982565b81526020016000151581526020016000151581525090565b8154818355818115116108e9576002028160020283600052602060002091820191016108e89190610996565b5b505050565b828054600181600116156101000203166002900490600052602060002090601f016020900481019282601f1061092f57805160ff191683800117855561095d565b8280016001018555821561095d579182015b8281111561095c578251825591602001919060010190610941565b5b50905061096a91906109ed565b5090565b602060405190810160405280600081525090565b602060405190810160405280600081525090565b6109ea91905b808211156109e657600080820160006109b59190610a12565b6001820160006101000a81549060ff02191690556001820160016101000a81549060ff02191690555060020161099c565b5090565b90565b610a0f91905b80821115610a0b5760008160009055506001016109f3565b5090565b90565b50805460018160011615610100020316600290046000825580601f10610a385750610a57565b601f016020900490600052602060002090810190610a5691906109ed565b5b505600a165627a7a72305820a348951de0e15710d11c484ad63ea894618945618ce013ef2a3a2282b46f6a9c0029",
  "source": "pragma solidity ^0.4.21;\n\ncontract TodoFactory {\n\n    event OnTodoAdded(uint todoId);\n    event OnTodoDeleted(uint todoId);\n    event OnTodoCompleted(uint todoId);\n\n    struct Todo {\n        string taskName;\n        bool isComplete;\n        bool isValid;\n    }\n    Todo[] todos;\n\n    // Modifiers\n    modifier isValidTodo(uint _todoId) {\n        require(isTodoValid(_todoId));\n        _; // 語法上必要的\n    }\n\n    // Public function\n    function isTodoValid(uint _todoId) public view returns(bool isVald) {\n        return todos[_todoId].isValid;\n    }\n\n    function isTodoCompleted(uint _todoId) public view isValidTodo(_todoId) returns(bool isValid) {\n        return todos[_todoId].isComplete;\n    }\n\n    function getTodo(uint _todoId) public view isValidTodo(_todoId) returns(string, bool) {\n        return(todos[_todoId].taskName, todos[_todoId].isComplete);\n    }\n\n    function getTodoList() public view returns(uint[], bool[]) {\n        uint len;\n        uint[] memory valids;\n\n        (valids, len) = _getValidTodos();\n\n        uint[] memory ids = new uint[](len);\n        bool[] memory isCompletes = new bool[](len);\n        for(uint i = 0; i < len; i++) {\n            uint id = valids[i];\n            ids[i] = id;\n            isCompletes[i] = todos[id].isComplete;\n        }\n        return(ids, isCompletes);\n    }\n\n    function addTodo(string _taskName) public {\n        Todo memory todo = Todo(_taskName, false, true);\n        uint todoId = todos.push(todo) - 1;\n\n        // trigger event\n        // so we can get the return value, todoId\n        emit OnTodoAdded(todoId);\n    }\n\n    function deleteTodo(uint _todoId) public isValidTodo(_todoId) {\n        todos[_todoId].isValid = false;\n\n        emit OnTodoDeleted(_todoId);\n    }\n\n    function completeTodo(uint _todoId) public isValidTodo(_todoId) {\n        todos[_todoId].isComplete = true;\n\n        emit OnTodoCompleted(_todoId);\n    }\n\n    // Private Methods\n    function _getValidTodos() private view returns(uint[] valids, uint length) {\n        uint[] memory validTodos = new uint[](todos.length);\n        uint count = 0;\n        for(uint i = 0; i < todos.length; i++) {\n            if(isTodoValid(i)) {\n                validTodos[count] = i;\n                count++;\n            }\n        }\n        return(validTodos, count);\n    }\n}",
  "sourcePath": "/Users/HAHATTAN/Workspace/EthereumTodo/contracts/TodoFactory.sol",
  "compiler": {
    "name": "solc",
    "version": "0.4.21+commit.dfe3193c.Emscripten.clang"
  },
  "schemaVersion": "2.0.0",
  "updatedAt": "2018-04-15T10:10:58.074Z"
}